:1000000012C02AC029C0D5C027C02FC125C025C015
:1000100072C022C021C020C01FC01EC01DC01CC095
:100020001BC01AC019C011241FBECFEDCDBF10E0F8
:10003000A0E6B0E0E6E8F5E002C005900D92A23639
:10004000B107D9F720E0A2E6B0E001C01D92A43BC1
:10005000B207E1F76DD195C2D3CF1F920F920FB6C1
:100060000F9211242F933F934F935F936F937F933E
:100070008F939F93AF93BF93EF93FF9380918700EC
:10008000843010F19091B0008091B100890F805CB4
:100090009091B200890F9091B3002CB1890F28176D
:1000A00001F110928700FF91EF91BF91AF919F9165
:1000B0008F917F916F915F914F913F912F910F9011
:1000C0000FBE0F901F901895E0918700F0E08CB163
:1000D000E055FF4F8083809187008F5F809387007A
:1000E000E2CF60EB70E084E690E088D191E0892770
:1000F00080936200D6CF1F920F920FB60F921124F9
:100100002F933F934F935F936F937F938F939F931F
:10011000AF93BF93EF93FF938091600087FD33C04F
:1001200080916000843008F18FEF8093600090919F
:10013000890080918A00890F805C90918B00890FE3
:1001400090918C00890F8CB9FF91EF91BF91AF9185
:100150009F918F917F916F915F914F913F912F91DF
:100160000F900FBE0F901F901895E091600081E0F6
:100170008E0F809360000E2E000CFF0BE757FF4F91
:1001800080818CB9E1CF8091AF00811102C0559878
:10019000DBCF69E870E08DE890E0B6D1882319F0F4
:1001A00010926000D1CF8091620081E08093620064
:1001B000CBCF1F920F920FB60F9211242F933F9324
:1001C0004F935F936F937F938F939F93AF93BF935F
:1001D000EF93FF93CF93DF93CDB7DD27C350CDBF10
:1001E00084B595B59A8389831DBC1CBC82E08B8342
:1001F0008091630091E08823B1F18B8190FB84F9B9
:100200008B8380918800811104C089819A810A972B
:1002100098F09E012F5F3F4F48E850E0BE016D5FB0
:100220007F4F8DE890E028D19091620021E08227F5
:10023000982B90936200559A10928800CD5FCDBFA5
:10024000DF91CF91FF91EF91BF91AF919F918F91EE
:100250007F916F915F914F913F912F910F900FBEC2
:100260000F901F90189590E0C8CF1F920F920FB675
:100270000F9211242F933F934F935F936F937F932C
:100280008F939F93AF93BF93EF93FF93CF93DF939E
:10029000CDB7DD27C350CDBF8FEF9FEF9A83898302
:1002A00082E08B838091630091E0882311F18B8140
:1002B00090FB84F98B83809188008F3F19F18091A6
:1002C00088008F5F80938800CD5FCDBFDF91CF9195
:1002D000FF91EF91BF91AF919F918F917F916F911E
:1002E0005F914F913F912F910F900FBE0F901F90F4
:1002F000189590E08B8190FB84F98B838091880026
:100300008F3FE9F69E012F5F3F4F48E850E0BE0166
:100310006D5F7F4F8DE890E0AFD09091620021E05B
:100320008227982B90936200559A10928800CCCF28
:1003300084E690E05DD08DE890E05AD0BA9AB89803
:10034000C09A8B9A939A8E9882E08EBD83E089B989
:1003500012B888E98AB986E083B9C29A2FEF39E6E4
:1003600088E1215030408040E1F700C00000C29891
:100370009FEF29E638E1915020403040E1F700C07E
:100380000000789421E008C0939889B7886889BFF5
:1003900080916200811117C086B38170822790918D
:1003A00063008917A9F38093630080916300811132
:1003B000EBCF89B7877789BF939A109262008091BB
:1003C0006200882349F3C29A8FEF99E638E18150A1
:1003D00090403040E1F700C00000C2988FEF99E6EE
:1003E00038E1815090403040E1F700C00000D4CFA8
:1003F000FC018FEF80A381A312A20895CF93DF9316
:10040000DC01EB019FB7F89492968C91929788301B
:1004100071F190968C9190978F5F90968C939097B6
:1004200090968C91909788301CF090961C929097A3
:100430009096EC9190970E2E000CFF0BEE0FFF1F85
:10044000EE0FFF1FEA0FFB1F488159816A817B81F4
:10045000408351836283738392968C9192978F5FCE
:1004600092968C939FBF81E0DF91CF9108959FBFBB
:1004700080E0DF91CF910895CF93DF93FC019FB788
:10048000F89482A18830D9F180A18F5F80A380A1E8
:1004900088300CF010A2A0A10A2E000CBB0BAA0FF2
:1004A000BB1FAA0FBB1FAE0FBF1FEB0188818C9330
:1004B000A0A10A2E000CBB0BEA018881AA0FBB1F6A
:1004C000AA0FBB1FAE0FBF1F13968C93A0A10A2EBD
:1004D000000CBB0BE90128813981AA0FBB1FAA0FB1
:1004E000BB1FAE0FBF1F12963C932E93119782A194
:1004F0008F5F82A39FBF81E0DF91CF9108959FBF5F
:1005000080E0DF91CF910895CF93DF93DC01EB0181
:100510009FB7F89492968C919297882371F1919657
:100520008C9191978F5F91968C93919791968C91E6
:10053000919788301CF091961C9291979196EC912E
:1005400091970E2E000CFF0BEE0FFF1FEE0FFF1FFB
:10055000EA0FFB1F40815181628173814883598377
:100560006A837B8392968C919297815092968C931A
:100570009FBF81E0DF91CF9108959FBFDF91CF9121
:060580000895F894FFCF7E
:02058600FF0074
:00000001FF
