:1000000012C02AC029C088C102C2BCC125C0CDC04F
:1000100027C122C021C020C01FC01EC01DC01CC0DF
:100020001BC01AC019C011241FBECFEDCDBF10E0F8
:10003000A0E6B0E0EAE5F7E002C005900D92A23636
:10004000B107D9F720E0A2E6B0E001C01D92A93BBC
:10005000B207E1F732D27FC3D3CFCF93DF9300D083
:10006000CDB7DD27FC0169834A838A8180838FEFC6
:1000700082838383148289818183CE5FCDBFDF91A8
:10008000CF910895CF93DF93EC01FB01DA015FB7C5
:10009000F8949C818881981769F18A818F5F8A839F
:1000A00028818A8130E0082E000C990B8217930773
:1000B0000CF01A828A81298130E0280F311D87FDDA
:1000C0003A95D901AA0FBB1FAA0FBB1FA20FB31FDE
:1000D000AA0FBB1FA20FB31FAB59BF4F8BE00190FC
:1000E0000D928A95E1F78C818F5F8C835FBFDF91E2
:1000F000CF910895109749F03C9181E090E001C0C4
:10010000880F2A95EAF7832B8C935FBFDF91CF91FD
:100110000895CF93DF93EC01DB01FA015FB7F89408
:100120008C81882369F18B818F5F8B8328818B8100
:1001300030E0082E000C990B821793070CF01B82FD
:100140008B81298130E0280F311D87FD3A95F90117
:10015000EE0FFF1FEE0FFF1FE20FF31FEE0FFF1F4B
:10016000E20FF31FEB59FF4F8BE001900D928A9540
:10017000E1F78C8181508C835FBFDF91CF9108952F
:10018000309749F0308181E090E001C0880F2A95D6
:10019000EAF7832B80835FBFDF91CF910895FC0145
:1001A0009FB7F89484819FBF08951F920F920FB656
:1001B0000F9211242F933F934F935F936F937F93ED
:1001C0008F939F93AF93BF93EF93FF933BB1209196
:1001D000A20032FB882780F990E0880F991F829552
:1001E0009295907F9827807F9827822B8093A200FA
:1001F000E091A100F0E08CB1E255FF4F8083809147
:10020000A1008F5F8093A1008091A1008B3089F0C5
:10021000FF91EF91BF91AF919F918F917F916F91DE
:100220005F914F913F912F910F900FBE0F901F90B4
:10023000189522E042EA50E06EEA70E08CE990E026
:1002400021DF1092A1009FB7F89480916400882369
:1002500029F0809164008150809364009FBFD8CFC3
:100260001F920F920FB60F9211242F933F934F932B
:100270005F936F937F938F939F93AF93BF93EF930E
:10028000FF938091600087FD35C0809160008111EF
:1002900007C08091A30086FD2BC08BE08093630094
:1002A00090916000809163009817A4F08FEF809385
:1002B0006000FF91EF91BF91AF919F918F917F91DE
:1002C0006F915F914F913F912F910F900FBE0F90C3
:1002D0001F901895E091600081E08E0F8093600080
:1002E0000E2E000CFF0BED55FF4F80818CB9E1CF36
:1002F00083E0D4CF87E990E052DF811102C05598A6
:10030000D8CF21E042EA50E063EA70E087E990E06C
:1003100000DF10926000CDCF1F920F920FB60F92A8
:1003200011242F933F938F939F93AF93BF9324B543
:1003300035B58091870090918800A0918900B09197
:100340008A00820F931FA11DB11D80938700909397
:100350008800A0938900B0938A001DBC1CBC109239
:100360008700109288001092890010928A00BF9135
:10037000AF919F918F913F912F910F900FBE0F9052
:100380001F9018951F920F920FB60F9211248F9302
:100390009F93AF93BF938091870090918800A09125
:1003A0008900B0918A000197AF4FBF4F80938700BB
:1003B00090938800A0938900B0938A008091870071
:1003C00090918800A0918900B0918A004A97A10578
:1003D000B105A0F089E190E0A0E0B0E08093870053
:1003E00090938800A0938900B0938A0010928700B0
:1003F000109288001092890010928A00BF91AF91EC
:100400009F918F910F900FBE0F901F9018951F9284
:100410000F920FB60F9211248F939F93EF93FF9338
:10042000B39B27C08091620081112DC080918B0009
:10043000E0919600F0E087FD2CC0E557FF4F8181E9
:10044000882349F0E0919600F0E0E557FF4F818165
:1004500090E09BBD8ABD809196008F5F809396004F
:10046000FF91EF919F918F910F900FBE0F901F9072
:10047000189580916200823099F71FBC1EBC89B725
:100480008F7B89BFEDCF809162008F5F8093620088
:10049000E7CFEE0FFF1FE557FF4F81819281892B38
:1004A000D1F2E0919600F0E0EE0FFF1FE557FF4F0D
:1004B000818192819BBD8ABDCECFCF93DF93CDB793
:1004C000DD27CC50CDBF43E060E08CE990E0C5DD96
:1004D00040E060E087E990E0C0DDBA9ABB9AC39A39
:1004E000B898C09A8E9883E089B912B81BB888E989
:1004F0008AB986E283B919BE789498B384E09827C4
:1005000098BB2FEF39E698E1215030409040E1F759
:1005100000C0000098B3892788BB2FEF39E688E137
:10052000215030408040E1F700C000001092A2004E
:100530008091A0008823E1F323E0AE01445F5F4F88
:10054000BE016F5F7F4F8CE990E0E3DD898180FF22
:10055000EFCF982F9670963009F4EBC082FD16C04D
:1005600081FFE6CF94E088B3892788BB8FEF29E627
:1005700038E1815020403040E1F700C00000F3CF67
:100580008FE99FE00197F1F700C00000B099F8CF24
:1005900019828091A20091E0811101C090E08981CF
:1005A00090FB85F9806489838091A2008B831091F0
:1005B0009C008CE990E0F3DD181B1A8380916000A9
:1005C00087FFFCCF8BE0FE013196A3EAB0E00190FB
:1005D0000D928A95E1F710926000559A06C08FE956
:1005E0009FE00197F1F700C000008CE990E0D7DDB3
:1005F00090919C00891798F323E042EA50E06BE861
:1006000070E08CE990E085DD80918B0087FF8BC0E6
:1006100080918C0090918D009BBD8ABD81E080937C
:1006200096008AE18EBD83E48FBD89B7806489BF5F
:10063000C39880918B0087FF05C08091960084301D
:1006400009F441C080918B0087FD04C08091960021
:100650008930C9F10FB7F89410919C008CE990E0B3
:100660009EDD90916400181B191B1A830FBF8A81AD
:10067000882321F08091600087FD30C08091A20026
:100680008823B9F280E689838091A2008B838091D0
:10069000600087FFFCCF8BE0FE013196A3EAB0E05B
:1006A00001900D928A95E1F710926000559A9FEFA4
:1006B00023ED30E3915020403040E1F700C00000CE
:1006C000BB9AC39A4FCF23E042EA50E06BE870E058
:1006D0008CE990E01EDD10929600BCCF19828091CB
:1006E000A20091E0811101C090E0898190FB85F921
:1006F000806489838091A2008B838BE0FE01319618
:10070000A3EAB0E001900D928A95E1F710926000A3
:10071000559A9FB7F894209164008A81820F809344
:1007200064009FBFABCF80918C0090E09BBD8ABDE1
:1007300075CF19828091600087FFFCCF8BE0FE01AE
:100740003196A3EAB0E001900D928A95E1F71092FC
:0A0750006000559AEDCEF894FFCF3B
:02075A00FF009E
:00000001FF
