:1000000012C02AC029C0ABC027C019C125C024C056
:1000100023C022C021C020C01FC01EC01DC01CC0E4
:100020001BC01AC019C011241FBECFEDCDBF10E0F8
:10003000A0E6B0E0ECE2F3E002C005900D92A2363B
:10004000B107D9F720E0A2E6B0E001C01D92AD3AB9
:10005000B207E1F702D068C1D3CFBA9AB898C09A74
:100060008B9A939A8E9889B7886889BF82E08EBDF3
:1000700083E089B912B888E18AB986E083B9C29A67
:100080002FEF39E688E1215030408040E1F700C091
:100090000000C298789441E05FEF88B381708427B4
:1000A00090916200891741F0809362008091620014
:1000B000882309F450C093988091610087FD2CC07B
:1000C00080916100082E000C990BFC01EE0FFF1FC0
:1000D000E80FF91FEC59FF4F9F012D5F3F4F80E460
:1000E0005D9BFECFDF0191919CB99C91890F2E17EA
:1000F0003F07B1F75D9BFECF8CB9809161008F5FA8
:10010000809361009091610080916000891724F4D0
:100110005093610050936000809163008823C9F080
:10012000939A85E0C29A9FEF21EE34E091502040EF
:100130003040E1F700C00000C2989FEF21EE34E0AC
:10014000915020403040E1F700C00000815051F74D
:10015000A4CFC298A2CF939A10926300ADCF1F9202
:100160000F920FB60F9211242F933F938F939F936B
:10017000EF93FF93CF93DF9300D0CDB7DD2784B506
:1001800095B59A8389831DBC1CBC8091620088232D
:10019000C1F180916300811134C08091AC0088234B
:1001A00009F440C080916100873109F444C0809116
:1001B00061008F3FE9F1809160008F5F8093600064
:1001C00080916000082E000C990B29813A81FC0176
:1001D000EE0FFF1F8E0F9F1FFC01EC59FF4F318365
:1001E000208380916000082E000C990B2091AC00B8
:1001F000FC01EE0FFF1F8E0F9F1FFC01EC59FF4FFC
:1002000022831092AC00CE5FCDBFDF91CF91FF91E2
:10021000EF919F918F913F912F910F900FBE0F9073
:100220001F90189589819A81099708F0BBCFE9CF73
:1002300010926100C0CF81E080936300E2CF1F92F3
:100240000F920FB60F9211242F933F938F939F938A
:10025000EF93FF93CF93DF9300D0CDB7DD278FEFE0
:100260009FEF9A8389838091AC008F3FA1F08091AA
:10027000AC008F5F8093AC00CE5FCDBFDF91CF919C
:10028000FF91EF919F918F913F912F910F900FBE12
:100290000F901F901895809162008823B1F1809192
:1002A0006300811132C08091AC00882389F1809174
:1002B00061008731A9F1809161008F3F71F18091D8
:1002C00060008F5F8093600080916000082E000CBA
:1002D000990B29813A81FC01EE0FFF1F8E0F9F1FA2
:1002E000FC01EC59FF4F3183208380916000082E80
:1002F000000C990B2091AC00FC01EE0FFF1F8E0F3C
:100300009F1FFC01EC59FF4F22831092AC00B4CF29
:1003100089819A810997C8F3CACF10926100CFCF23
:0C03200081E080936300F1CFF894FFCFE0
:02032C00FFFFD1
:00000001FF
