:1000000012C02AC029C07EC171C2EAC12CC199C0E8
:10001000DFC022C021C020C01FC01EC01DC01CC028
:100020001BC01AC019C011241FBECFEDCDBF10E0F8
:10003000A0E6B0E0E0ECF7E002C005900D92A23639
:10004000B107D9F720E0A2E6B0E001C01D92AB3BBA
:10005000B207E1F7CED2B2C3D3CFFC018FEF868FC8
:10006000878F10A20895CF93DF93EC01FB012FB788
:10007000F89488A1863001F18E8D8F5F8E8F8E8DE2
:1000800086300CF01E8EAE8D0A2E000CBB0BCD01FF
:10009000880F991F880F991FA80FB91FAC0FBD1F9C
:1000A00085E001900D928A95E1F788A18F5F88A382
:1000B0002FBFDF91CF9108954115510521F0FA012D
:1000C0008081826080832FBFDF91CF910895CF938D
:1000D000DF93EC01DB012FB7F89488A1882301F1AD
:1000E0008F8D8F5F8F8F8F8D86300CF01F8EEF8DF1
:1000F0000E2E000CFF0BCF01880F991F880F991F40
:10010000E80FF91FEC0FFD1F85E001900D928A9515
:10011000E1F788A1815088A32FBFDF91CF91089587
:100120004115510521F0FA018081816080832FBF44
:10013000DF91CF910895FC019FB7F89480A19FBFF4
:1001400008951F920F920FB60F9211242F933F9391
:100150004F935F936F937F938F939F93AF93BF93CF
:10016000EF93FF93E091AF00F0E08CB1EA54FF4FC2
:1001700080838091AF008F5F8093AF008091AF004C
:10018000853089F0FF91EF91BF91AF919F918F9151
:100190007F916F915F914F913F912F910F900FBE83
:1001A0000F901F90189520EB30E046EB50E060E098
:1001B00070E0CA01F0D1811103C01092AF00E2CF0C
:1001C00040EB50E066EB70E08EE890E04CDFF5CF5E
:1001D0001F920F920FB60F9211242F933F934F93BC
:1001E0005F936F937F938F939F93AF93BF93EF939F
:1001F000FF938091600087FD26C08091600085306C
:10020000A0F08FEF80936000FF91EF91BF91AF91CD
:100210009F918F917F916F915F914F913F912F911E
:100220000F900FBE0F901F901895E091600081E035
:100230008E0F809360000E2E000CFF0BEF54FF4FCB
:1002400080818CB9E1CF80918D00811102C05598D9
:10025000DBCF40EB50E061EB70E08DE690E037DF04
:1002600010926000D1CF1F920F920FB60F921124FF
:100270008F939F9380916300811108C08091B0009B
:10028000882321F098B384E0892788BB809163009C
:100290008F5F809363008091630087708093630019
:1002A0009F918F910F900FBE0F901F901895DC01BA
:1002B000E8E6F0E0108286B3908180FB94F99083A9
:1002C0008D919D910D90BC91A02DB370E9E6F0E069
:1002D00080839183A2839B2F937083818C7F892B52
:1002E000838320E030E040E050E068E670E0CB013E
:1002F00052D140EB50E068E670E08DE690E0B3DE6E
:10030000559A08951F920F920FB60F9211242F93B2
:100310003F934F935F936F937F938F939F93AF938D
:10032000BF93EF93FF9324B535B58091640090910E
:100330006500A0916600B0916700820F931FA11D18
:10034000B11D8093640090936500A0936600B09304
:1003500067001DBC1CBC10926400109265001092D6
:10036000660010926700E8E6F0E0108296B38081A4
:1003700090FB84F980838091640090916500A09146
:100380006600B0916700B370E9E6F0E08083918386
:10039000A2839B2F937083818C7F892B838320E0A2
:1003A00030E040E050E068E670E0CB01F4D040EB94
:1003B00050E068E670E08DE690E055DE559AFF91DA
:1003C000EF91BF91AF919F918F917F916F915F91CD
:1003D0004F913F912F910F900FBE0F901F90189546
:1003E0001F920F920FB60F9211242F933F934F93AA
:1003F0005F936F937F938F939F93AF93BF93EF938D
:10040000FF938091640090916500A0916600B09187
:1004100067000197AF4FBF4F8093640090936500D2
:10042000A0936600B093670080916400909165008E
:10043000A0916600B09167000097A105B44008F450
:1004400044C08FEF9FEFAFEFB3E0809364009093D1
:100450006500A0936600B09367001092680096B3A1
:100460008091680090FB84F980936800809164001B
:1004700090916500A0916600B0916700B370809381
:10048000690090936A00A0936B009B2F93708091FA
:100490006C008C7F892B80936C0020E030E040E082
:1004A00050E068E670E0CB0176D040EB50E068E6C3
:1004B00070E08DE690E0D7DD559A109264001092BE
:1004C00065001092660010926700FF91EF91BF9156
:1004D000AF919F918F917F916F915F914F913F91DC
:1004E0002F910F900FBE0F901F9018951F920F9293
:1004F0000FB60F9211242F933F934F935F936F93F7
:100500007F938F939F93AF93BF93EF93FF93B39B8F
:100510001AC080916200882301F1809162008F5F90
:1005200080936200FF91EF91BF91AF919F918F9166
:100530007F916F915F914F913F912F910F900FBEDF
:100540000F901F90189580916200823059F71FBC60
:100550001EBC89B78F7B89BFE5CF40EB50E068E6D2
:1005600070E08EE890E0B3DD8091680083FB99270E
:1005700090F980916200892B80936200309169002C
:1005800020916A0080916B0080916C00832F922FE4
:100590009BBD8ABDC7CFFC01D9018081885F918155
:1005A000890F9281890F9381890F94819370890FAC
:1005B0008F736115710541F0FB0194819370382FA1
:1005C000330F330F932B94834115510581F0FA01BA
:1005D00044814695469550E090E04817590729F028
:1005E0008C9184608C9380E0089581E0089580E090
:1005F0000895CF93DF93CDB7DD27C650CDBF8EE8EA
:1006000090E02BDD8DE690E028DDBA9ABB9AC39A84
:10061000B898C09A8E9883E089B912B888E98AB9E7
:1006200086E083B919BE10BE85E083BF89B78260BA
:1006300089BF789498B384E0982798BB2FEF39E668
:1006400048E1215030404040E1F700C0000098B33D
:10065000892788BB5FEF89E698E151508040904040
:10066000E1F700C000001092B00010E21E82AE015F
:100670004A5F5F4FBE016F5F7F4F8EE890E027DDDE
:100680008E818111F3CF20E030E0AE014F5F5F4FEC
:1006900060E070E0CA017FDF882341F3898180FF39
:1006A000E5CF982F9670963009F471C082FD07C08F
:1006B000DDCF8FE99FE00197F1F700C00000B0990E
:1006C000F8CF80E189838EE890E035DD26E030E0E8
:1006D000A901481B5109CA01092E000CAA0BBB0B2A
:1006E000B3708A839B83AC838B2F83709D819C7FA7
:1006F000892B8D8320E030E040E050E0BE016F5F49
:100700007F4FCB0148DF40EB50E0BE016F5F7F4F72
:100710008DE690E0A8DC559A06C08FE99FE001972E
:10072000F1F700C000008EE890E005DD8630A8F308
:1007300040EB50E0BE016F5F7F4F8EE890E0C7DC7A
:100740008A819B819BBD8ABD8AE18EBD83E48FBD7A
:1007500089B7806489BFC398109262008FE39CE9D7
:100760000197F1F700C0000009B606FCF7CF9FEF34
:1007700023ED30E3915020403040E1F700C000000D
:10078000BB9AC39A98B384E0892788BBFFCF8D8139
:1007900083708D83198320E030E040E050E0BE019B
:1007A0006F5F7F4FCB01F7DE40EB50E0BE016F5F24
:1007B0007F4F8DE690E057DC559A58CFF894FFCFE5
:0207C000FF0038
:00000001FF
